S00C000070726F312E7372656396
S11300000C942A000C9434000C9434000C943400A6
S11300100C9434000C9434000C9434000C9434008C
S11300200C9434000C9434000C9434000C9434007C
S11300300C9434000C9434000C9434000C9434006C
S11300400C9434000C9434000C9434000C9434005C
S11300500C94340011241FBECFE5D8E0DEBFCDBF21
S11300600E9436000C944D000C940000889A909ADB
S11300702FEF80E792E0215080409040E1F700C0EC
S1130080000082B312BA2FEF80E792E02150804043
S11100909040E1F700C00000EACFF894FFCFE3
S9030000FC
