S0100000414443746F4156522E7372656380
S11300000C9434000C9451000C9451000C94510045
S11300100C9451000C9451000C9451000C94510018
S11300200C9451000C9451000C9451000C94510008
S11300300C9451000C9451000C9451000C945100F8
S11300400C9451000C9451000C9451000C945100E8
S11300500C9451000C9451000C9451000C945100D8
S11300600C9451000C94510011241FBECFEFD8E022
S1130070DEBFCDBF11E0A0E0B1E0E8EEF1E002C0E8
S113008005900D92AA30B107D9F721E0AAE0B1E0BA
S113009001C01D92AA30B207E1F70E9498000C94A7
S11300A0F2000C940000EAE7F0E08081876080832E
S11300B0ACE7B0E08C9180648C938081806880830D
S11300C08081806480830895ECE7F0E09081907FE4
S11300D090839081892B8083EAE7F0E080818064BB
S11300E08083808186FDFDCF809178009091790096
S11300F008951092C50083E38093C40088E180933F
S1130100C10086E08093C2000895CF93DF93FC0181
S11301109081992351F03196C0ECD0E0A6ECB0E088
S113012088819C9391919111FBCFDF91CF91089598
S1130130CF93DF9300D000D0CDB7DEB70E94530039
S11301400E94790080E00E9464008C014AE0BE01B4
S11301506F5F7F4F0E94C800CE0101960E94850008
S11301602FEF81EE94E0215080409040E1F700C0F1
S11301700000043F114030F080E091E00E948500CF
S11301802D9AE0CF85E091E00E9485002D98DACF8A
S1130190BB27FB015527AA27880F991FAA1FA4175D
S11301A010F0A41B83955051B9F7A05DAA3308F051
S11301B0A95DA193009779F7B111B1931192CB0185
S11301C00C94E200DC01FC01672F71917723E1F7C5
S11301D0329704C07C916D9370836291AE17BF0710
S10B01E0C8F30895F894FFCF61
S10D01E848696768004C6F77000057
S9030000FC
